{
  "address": "0x5FbDB2315678afecb367f032d93F642f64180aa3",
  "abi": [
    {
      "inputs": [
        {
          "internalType": "uint256",
          "name": "diarySavingFee",
          "type": "uint256"
        },
        {
          "internalType": "uint256",
          "name": "diaryCoverFee",
          "type": "uint256"
        },
        {
          "internalType": "string",
          "name": "ownerProfileUri",
          "type": "string"
        }
      ],
      "stateMutability": "nonpayable",
      "type": "constructor"
    },
    {
      "inputs": [],
      "name": "Diary__InsufficientFee",
      "type": "error"
    },
    {
      "inputs": [],
      "name": "Diary__NoActiveFollowRequestForRequester",
      "type": "error"
    },
    {
      "inputs": [],
      "name": "Diary__NotAllowedToFollowYourself",
      "type": "error"
    },
    {
      "inputs": [],
      "name": "Diary__NotEnoughFollowerToken",
      "type": "error"
    },
    {
      "inputs": [],
      "name": "Diary__ProfileAlreadyFollowedByYou",
      "type": "error"
    },
    {
      "inputs": [],
      "name": "Diary__ProfileNotFollowedByYou",
      "type": "error"
    },
    {
      "inputs": [],
      "name": "Diary__ProfileNotOwnedByAnyone",
      "type": "error"
    },
    {
      "inputs": [],
      "name": "Diary__ProfileNotOwnedByYou",
      "type": "error"
    },
    {
      "inputs": [],
      "name": "Diary__RequestedProfileIsNotPrivate",
      "type": "error"
    },
    {
      "inputs": [
        {
          "internalType": "address",
          "name": "sender",
          "type": "address"
        },
        {
          "internalType": "uint256",
          "name": "balance",
          "type": "uint256"
        },
        {
          "internalType": "uint256",
          "name": "needed",
          "type": "uint256"
        },
        {
          "internalType": "uint256",
          "name": "tokenId",
          "type": "uint256"
        }
      ],
      "name": "ERC1155InsufficientBalance",
      "type": "error"
    },
    {
      "inputs": [
        {
          "internalType": "address",
          "name": "approver",
          "type": "address"
        }
      ],
      "name": "ERC1155InvalidApprover",
      "type": "error"
    },
    {
      "inputs": [
        {
          "internalType": "uint256",
          "name": "idsLength",
          "type": "uint256"
        },
        {
          "internalType": "uint256",
          "name": "valuesLength",
          "type": "uint256"
        }
      ],
      "name": "ERC1155InvalidArrayLength",
      "type": "error"
    },
    {
      "inputs": [
        {
          "internalType": "address",
          "name": "operator",
          "type": "address"
        }
      ],
      "name": "ERC1155InvalidOperator",
      "type": "error"
    },
    {
      "inputs": [
        {
          "internalType": "address",
          "name": "receiver",
          "type": "address"
        }
      ],
      "name": "ERC1155InvalidReceiver",
      "type": "error"
    },
    {
      "inputs": [
        {
          "internalType": "address",
          "name": "sender",
          "type": "address"
        }
      ],
      "name": "ERC1155InvalidSender",
      "type": "error"
    },
    {
      "inputs": [
        {
          "internalType": "address",
          "name": "operator",
          "type": "address"
        },
        {
          "internalType": "address",
          "name": "owner",
          "type": "address"
        }
      ],
      "name": "ERC1155MissingApprovalForAll",
      "type": "error"
    },
    {
      "inputs": [
        {
          "internalType": "address",
          "name": "owner",
          "type": "address"
        }
      ],
      "name": "OwnableInvalidOwner",
      "type": "error"
    },
    {
      "inputs": [
        {
          "internalType": "address",
          "name": "account",
          "type": "address"
        }
      ],
      "name": "OwnableUnauthorizedAccount",
      "type": "error"
    },
    {
      "inputs": [],
      "name": "ReentrancyGuardReentrantCall",
      "type": "error"
    },
    {
      "anonymous": false,
      "inputs": [
        {
          "indexed": true,
          "internalType": "address",
          "name": "account",
          "type": "address"
        },
        {
          "indexed": true,
          "internalType": "address",
          "name": "operator",
          "type": "address"
        },
        {
          "indexed": false,
          "internalType": "bool",
          "name": "approved",
          "type": "bool"
        }
      ],
      "name": "ApprovalForAll",
      "type": "event"
    },
    {
      "anonymous": false,
      "inputs": [
        {
          "indexed": true,
          "internalType": "uint256",
          "name": "profileTokenId",
          "type": "uint256"
        },
        {
          "indexed": true,
          "internalType": "uint256",
          "name": "diaryId",
          "type": "uint256"
        },
        {
          "indexed": true,
          "internalType": "string",
          "name": "tokenUri",
          "type": "string"
        }
      ],
      "name": "DiaryCreated",
      "type": "event"
    },
    {
      "anonymous": false,
      "inputs": [
        {
          "indexed": true,
          "internalType": "uint256",
          "name": "profileId",
          "type": "uint256"
        },
        {
          "indexed": true,
          "internalType": "address",
          "name": "requester",
          "type": "address"
        }
      ],
      "name": "FollowRequest",
      "type": "event"
    },
    {
      "anonymous": false,
      "inputs": [
        {
          "indexed": true,
          "internalType": "uint256",
          "name": "profileId",
          "type": "uint256"
        },
        {
          "indexed": true,
          "internalType": "address",
          "name": "requester",
          "type": "address"
        }
      ],
      "name": "FollowRequestApproved",
      "type": "event"
    },
    {
      "anonymous": false,
      "inputs": [
        {
          "indexed": true,
          "internalType": "uint256",
          "name": "profileId",
          "type": "uint256"
        },
        {
          "indexed": true,
          "internalType": "address",
          "name": "requester",
          "type": "address"
        }
      ],
      "name": "FollowRequestDenied",
      "type": "event"
    },
    {
      "anonymous": false,
      "inputs": [
        {
          "indexed": true,
          "internalType": "address",
          "name": "previousOwner",
          "type": "address"
        },
        {
          "indexed": true,
          "internalType": "address",
          "name": "newOwner",
          "type": "address"
        }
      ],
      "name": "OwnershipTransferred",
      "type": "event"
    },
    {
      "anonymous": false,
      "inputs": [
        {
          "indexed": true,
          "internalType": "address",
          "name": "followerAddress",
          "type": "address"
        },
        {
          "indexed": true,
          "internalType": "address",
          "name": "followeeAddress",
          "type": "address"
        },
        {
          "indexed": true,
          "internalType": "uint256",
          "name": "followedProfileId",
          "type": "uint256"
        }
      ],
      "name": "ProfileFollowed",
      "type": "event"
    },
    {
      "anonymous": false,
      "inputs": [
        {
          "indexed": true,
          "internalType": "address",
          "name": "profileOwner",
          "type": "address"
        },
        {
          "indexed": true,
          "internalType": "uint256",
          "name": "tokenId",
          "type": "uint256"
        },
        {
          "indexed": true,
          "internalType": "string",
          "name": "tokenUri",
          "type": "string"
        }
      ],
      "name": "ProfileMint",
      "type": "event"
    },
    {
      "anonymous": false,
      "inputs": [
        {
          "indexed": true,
          "internalType": "uint256",
          "name": "profileId",
          "type": "uint256"
        },
        {
          "indexed": false,
          "internalType": "bool",
          "name": "isPrivate",
          "type": "bool"
        }
      ],
      "name": "ProfilePrivacyChanged",
      "type": "event"
    },
    {
      "anonymous": false,
      "inputs": [
        {
          "indexed": true,
          "internalType": "address",
          "name": "followerAddress",
          "type": "address"
        },
        {
          "indexed": true,
          "internalType": "address",
          "name": "followeeAddress",
          "type": "address"
        },
        {
          "indexed": true,
          "internalType": "uint256",
          "name": "followedProfileId",
          "type": "uint256"
        }
      ],
      "name": "ProfileUnfollowed",
      "type": "event"
    },
    {
      "anonymous": false,
      "inputs": [
        {
          "indexed": true,
          "internalType": "address",
          "name": "operator",
          "type": "address"
        },
        {
          "indexed": true,
          "internalType": "address",
          "name": "from",
          "type": "address"
        },
        {
          "indexed": true,
          "internalType": "address",
          "name": "to",
          "type": "address"
        },
        {
          "indexed": false,
          "internalType": "uint256[]",
          "name": "ids",
          "type": "uint256[]"
        },
        {
          "indexed": false,
          "internalType": "uint256[]",
          "name": "values",
          "type": "uint256[]"
        }
      ],
      "name": "TransferBatch",
      "type": "event"
    },
    {
      "anonymous": false,
      "inputs": [
        {
          "indexed": true,
          "internalType": "address",
          "name": "operator",
          "type": "address"
        },
        {
          "indexed": true,
          "internalType": "address",
          "name": "from",
          "type": "address"
        },
        {
          "indexed": true,
          "internalType": "address",
          "name": "to",
          "type": "address"
        },
        {
          "indexed": false,
          "internalType": "uint256",
          "name": "id",
          "type": "uint256"
        },
        {
          "indexed": false,
          "internalType": "uint256",
          "name": "value",
          "type": "uint256"
        }
      ],
      "name": "TransferSingle",
      "type": "event"
    },
    {
      "anonymous": false,
      "inputs": [
        {
          "indexed": false,
          "internalType": "string",
          "name": "value",
          "type": "string"
        },
        {
          "indexed": true,
          "internalType": "uint256",
          "name": "id",
          "type": "uint256"
        }
      ],
      "name": "URI",
      "type": "event"
    },
    {
      "inputs": [
        {
          "internalType": "uint256",
          "name": "profileId",
          "type": "uint256"
        },
        {
          "internalType": "string",
          "name": "diaryUri",
          "type": "string"
        },
        {
          "internalType": "enum Enums.DiaryVisibility",
          "name": "visibility",
          "type": "uint8"
        }
      ],
      "name": "CreateDiary",
      "outputs": [],
      "stateMutability": "payable",
      "type": "function"
    },
    {
      "inputs": [],
      "name": "DiaryCoverFee",
      "outputs": [
        {
          "internalType": "uint256",
          "name": "",
          "type": "uint256"
        }
      ],
      "stateMutability": "view",
      "type": "function"
    },
    {
      "inputs": [],
      "name": "DiarySavingFee",
      "outputs": [
        {
          "internalType": "uint256",
          "name": "",
          "type": "uint256"
        }
      ],
      "stateMutability": "view",
      "type": "function"
    },
    {
      "inputs": [
        {
          "internalType": "address",
          "name": "diaryOwner",
          "type": "address"
        }
      ],
      "name": "MoreThanOneDiaryPerDay",
      "outputs": [
        {
          "internalType": "bool",
          "name": "moreThanOne",
          "type": "bool"
        }
      ],
      "stateMutability": "view",
      "type": "function"
    },
    {
      "inputs": [
        {
          "internalType": "uint256",
          "name": "profileId",
          "type": "uint256"
        },
        {
          "internalType": "address",
          "name": "requester",
          "type": "address"
        }
      ],
      "name": "approveFollowRequest",
      "outputs": [],
      "stateMutability": "nonpayable",
      "type": "function"
    },
    {
      "inputs": [
        {
          "internalType": "uint256",
          "name": "profileId1",
          "type": "uint256"
        },
        {
          "internalType": "uint256",
          "name": "profileId2",
          "type": "uint256"
        }
      ],
      "name": "areFriends",
      "outputs": [
        {
          "internalType": "bool",
          "name": "",
          "type": "bool"
        }
      ],
      "stateMutability": "view",
      "type": "function"
    },
    {
      "inputs": [
        {
          "internalType": "address",
          "name": "account",
          "type": "address"
        },
        {
          "internalType": "uint256",
          "name": "id",
          "type": "uint256"
        }
      ],
      "name": "balanceOf",
      "outputs": [
        {
          "internalType": "uint256",
          "name": "",
          "type": "uint256"
        }
      ],
      "stateMutability": "view",
      "type": "function"
    },
    {
      "inputs": [
        {
          "internalType": "address[]",
          "name": "accounts",
          "type": "address[]"
        },
        {
          "internalType": "uint256[]",
          "name": "ids",
          "type": "uint256[]"
        }
      ],
      "name": "balanceOfBatch",
      "outputs": [
        {
          "internalType": "uint256[]",
          "name": "",
          "type": "uint256[]"
        }
      ],
      "stateMutability": "view",
      "type": "function"
    },
    {
      "inputs": [
        {
          "internalType": "address",
          "name": "account",
          "type": "address"
        },
        {
          "internalType": "uint256",
          "name": "id",
          "type": "uint256"
        },
        {
          "internalType": "uint256",
          "name": "value",
          "type": "uint256"
        }
      ],
      "name": "burn",
      "outputs": [],
      "stateMutability": "nonpayable",
      "type": "function"
    },
    {
      "inputs": [
        {
          "internalType": "address",
          "name": "account",
          "type": "address"
        },
        {
          "internalType": "uint256[]",
          "name": "ids",
          "type": "uint256[]"
        },
        {
          "internalType": "uint256[]",
          "name": "values",
          "type": "uint256[]"
        }
      ],
      "name": "burnBatch",
      "outputs": [],
      "stateMutability": "nonpayable",
      "type": "function"
    },
    {
      "inputs": [
        {
          "internalType": "uint256",
          "name": "quantity",
          "type": "uint256"
        }
      ],
      "name": "buyFollowerTokens",
      "outputs": [],
      "stateMutability": "payable",
      "type": "function"
    },
    {
      "inputs": [
        {
          "internalType": "uint256",
          "name": "profileId",
          "type": "uint256"
        },
        {
          "internalType": "address",
          "name": "requester",
          "type": "address"
        }
      ],
      "name": "denyFollowRequest",
      "outputs": [],
      "stateMutability": "nonpayable",
      "type": "function"
    },
    {
      "inputs": [],
      "name": "discountRate",
      "outputs": [
        {
          "internalType": "uint256",
          "name": "",
          "type": "uint256"
        }
      ],
      "stateMutability": "view",
      "type": "function"
    },
    {
      "inputs": [
        {
          "internalType": "uint256",
          "name": "id",
          "type": "uint256"
        }
      ],
      "name": "exists",
      "outputs": [
        {
          "internalType": "bool",
          "name": "",
          "type": "bool"
        }
      ],
      "stateMutability": "view",
      "type": "function"
    },
    {
      "inputs": [
        {
          "internalType": "uint256",
          "name": "followerProfileId",
          "type": "uint256"
        },
        {
          "internalType": "uint256",
          "name": "followeeProfileId",
          "type": "uint256"
        }
      ],
      "name": "followProfile",
      "outputs": [],
      "stateMutability": "nonpayable",
      "type": "function"
    },
    {
      "inputs": [],
      "name": "followerTokenPrice",
      "outputs": [
        {
          "internalType": "uint256",
          "name": "",
          "type": "uint256"
        }
      ],
      "stateMutability": "view",
      "type": "function"
    },
    {
      "inputs": [
        {
          "internalType": "address",
          "name": "account",
          "type": "address"
        },
        {
          "internalType": "address",
          "name": "operator",
          "type": "address"
        }
      ],
      "name": "isApprovedForAll",
      "outputs": [
        {
          "internalType": "bool",
          "name": "",
          "type": "bool"
        }
      ],
      "stateMutability": "view",
      "type": "function"
    },
    {
      "inputs": [],
      "name": "owner",
      "outputs": [
        {
          "internalType": "address",
          "name": "",
          "type": "address"
        }
      ],
      "stateMutability": "view",
      "type": "function"
    },
    {
      "inputs": [
        {
          "internalType": "uint256",
          "name": "",
          "type": "uint256"
        }
      ],
      "name": "profileIndexInPublic",
      "outputs": [
        {
          "internalType": "uint256",
          "name": "",
          "type": "uint256"
        }
      ],
      "stateMutability": "view",
      "type": "function"
    },
    {
      "inputs": [
        {
          "internalType": "uint256",
          "name": "",
          "type": "uint256"
        }
      ],
      "name": "publicProfileIds",
      "outputs": [
        {
          "internalType": "uint256",
          "name": "",
          "type": "uint256"
        }
      ],
      "stateMutability": "view",
      "type": "function"
    },
    {
      "inputs": [],
      "name": "renounceOwnership",
      "outputs": [],
      "stateMutability": "nonpayable",
      "type": "function"
    },
    {
      "inputs": [
        {
          "internalType": "uint256",
          "name": "profileId",
          "type": "uint256"
        }
      ],
      "name": "requestToFollowProfile",
      "outputs": [],
      "stateMutability": "nonpayable",
      "type": "function"
    },
    {
      "inputs": [
        {
          "internalType": "address",
          "name": "from",
          "type": "address"
        },
        {
          "internalType": "address",
          "name": "to",
          "type": "address"
        },
        {
          "internalType": "uint256[]",
          "name": "ids",
          "type": "uint256[]"
        },
        {
          "internalType": "uint256[]",
          "name": "values",
          "type": "uint256[]"
        },
        {
          "internalType": "bytes",
          "name": "data",
          "type": "bytes"
        }
      ],
      "name": "safeBatchTransferFrom",
      "outputs": [],
      "stateMutability": "nonpayable",
      "type": "function"
    },
    {
      "inputs": [
        {
          "internalType": "address",
          "name": "from",
          "type": "address"
        },
        {
          "internalType": "address",
          "name": "to",
          "type": "address"
        },
        {
          "internalType": "uint256",
          "name": "id",
          "type": "uint256"
        },
        {
          "internalType": "uint256",
          "name": "value",
          "type": "uint256"
        },
        {
          "internalType": "bytes",
          "name": "data",
          "type": "bytes"
        }
      ],
      "name": "safeTransferFrom",
      "outputs": [],
      "stateMutability": "nonpayable",
      "type": "function"
    },
    {
      "inputs": [
        {
          "internalType": "address",
          "name": "operator",
          "type": "address"
        },
        {
          "internalType": "bool",
          "name": "approved",
          "type": "bool"
        }
      ],
      "name": "setApprovalForAll",
      "outputs": [],
      "stateMutability": "nonpayable",
      "type": "function"
    },
    {
      "inputs": [
        {
          "internalType": "uint256",
          "name": "newPrice",
          "type": "uint256"
        }
      ],
      "name": "setFollowerTokenPrice",
      "outputs": [],
      "stateMutability": "nonpayable",
      "type": "function"
    },
    {
      "inputs": [
        {
          "internalType": "uint256",
          "name": "profileId",
          "type": "uint256"
        },
        {
          "internalType": "bool",
          "name": "_isPrivate",
          "type": "bool"
        }
      ],
      "name": "setProfilePrivacy",
      "outputs": [],
      "stateMutability": "nonpayable",
      "type": "function"
    },
    {
      "inputs": [
        {
          "internalType": "string",
          "name": "newuri",
          "type": "string"
        }
      ],
      "name": "setURI",
      "outputs": [],
      "stateMutability": "nonpayable",
      "type": "function"
    },
    {
      "inputs": [
        {
          "internalType": "bytes4",
          "name": "interfaceId",
          "type": "bytes4"
        }
      ],
      "name": "supportsInterface",
      "outputs": [
        {
          "internalType": "bool",
          "name": "",
          "type": "bool"
        }
      ],
      "stateMutability": "view",
      "type": "function"
    },
    {
      "inputs": [],
      "name": "totalSupply",
      "outputs": [
        {
          "internalType": "uint256",
          "name": "",
          "type": "uint256"
        }
      ],
      "stateMutability": "view",
      "type": "function"
    },
    {
      "inputs": [
        {
          "internalType": "uint256",
          "name": "id",
          "type": "uint256"
        }
      ],
      "name": "totalSupply",
      "outputs": [
        {
          "internalType": "uint256",
          "name": "",
          "type": "uint256"
        }
      ],
      "stateMutability": "view",
      "type": "function"
    },
    {
      "inputs": [
        {
          "internalType": "address",
          "name": "newOwner",
          "type": "address"
        }
      ],
      "name": "transferOwnership",
      "outputs": [],
      "stateMutability": "nonpayable",
      "type": "function"
    },
    {
      "inputs": [
        {
          "internalType": "uint256",
          "name": "profileId",
          "type": "uint256"
        }
      ],
      "name": "unfollowProfile",
      "outputs": [],
      "stateMutability": "nonpayable",
      "type": "function"
    },
    {
      "inputs": [
        {
          "internalType": "uint256",
          "name": "id",
          "type": "uint256"
        }
      ],
      "name": "uri",
      "outputs": [
        {
          "internalType": "string",
          "name": "",
          "type": "string"
        }
      ],
      "stateMutability": "view",
      "type": "function"
    }
  ],
  "transactionHash": "0xa9df15d0e38f874ef16fca47508f1943522b00d19588d40008908f9063fe53e9",
  "args": [
    "100000000000000000",
    "100000000000000000",
    "http://url/"
  ],
  "numDeployments": 1,
  "solcInputHash": "3aad6b4a8a100f5cf6d4e0b55ca39a4c",
  "bytecode": "0x6080604052670de0b6b3a7640000600b55600a600c553480156200002257600080fd5b5060405162006ec438038062006ec4833981810160405281019062000048919062001210565b33604051806020016040528060008152506200006a816200014d60201b60201c565b50600073ffffffffffffffffffffffffffffffffffffffff168173ffffffffffffffffffffffffffffffffffffffff1603620000e05760006040517f1e4fbdf7000000000000000000000000000000000000000000000000000000008152600401620000d79190620012d0565b60405180910390fd5b620000f1816200016260201b60201c565b50600160068190555082600881905550816009819055506200013133600160ff166103e8604051806020016040528060008152506200022860201b60201c565b62000144816000620002d460201b60201c565b50505062001c8c565b80600290816200015e91906200152e565b5050565b6000600360009054906101000a900473ffffffffffffffffffffffffffffffffffffffff16905081600360006101000a81548173ffffffffffffffffffffffffffffffffffffffff021916908373ffffffffffffffffffffffffffffffffffffffff1602179055508173ffffffffffffffffffffffffffffffffffffffff168173ffffffffffffffffffffffffffffffffffffffff167f8be0079c531659141344cd1fd0a4f28419497f9722a3daafe3b4186f6b6457e060405160405180910390a35050565b600073ffffffffffffffffffffffffffffffffffffffff168473ffffffffffffffffffffffffffffffffffffffff16036200029d5760006040517f57f447ce000000000000000000000000000000000000000000000000000000008152600401620002949190620012d0565b60405180910390fd5b600080620002b285856200052e60201b60201c565b91509150620002cc6000878484876200055e60201b60201c565b505050505050565b6000620002e860006200063760201b60201c565b90506200030e33826001604051806020016040528060008152506200066160201b60201c565b826019600083815260200190815260200160002090816200033091906200152e565b506001601260003373ffffffffffffffffffffffffffffffffffffffff1673ffffffffffffffffffffffffffffffffffffffff168152602001908152602001600020600083815260200190815260200160002060006101000a81548160ff0219169083151502179055506001601460003373ffffffffffffffffffffffffffffffffffffffff1673ffffffffffffffffffffffffffffffffffffffff16815260200190815260200160002060006101000a81548160ff021916908315150217905550336013600083815260200190815260200160002060006101000a81548173ffffffffffffffffffffffffffffffffffffffff021916908373ffffffffffffffffffffffffffffffffffffffff160217905550816016600083815260200190815260200160002060000160006101000a81548160ff02191690831515021790555081620004cd5760178190806001815401808255809150506001900390600052602060002001600090919091909150556001601780549050620004b5919062001644565b60186000838152602001908152602001600020819055505b82604051620004dd9190620016c1565b6040518091039020813373ffffffffffffffffffffffffffffffffffffffff167f7f12dfaa89897e8576e1df3d22fd9d33745a418b2882ad551860bbc4111599ec60405160405180910390a4505050565b60608060405191506001825283602083015260408201905060018152826020820152604081016040529250929050565b62000572858585856200067b60201b60201c565b600073ffffffffffffffffffffffffffffffffffffffff168473ffffffffffffffffffffffffffffffffffffffff161462000630576000620005b96200069560201b60201c565b9050600184510362000617576000620005dd6000866200069d60201b90919060201c565b90506000620005f76000866200069d60201b90919060201c565b90506200060f838989858589620006b160201b60201c565b50506200062e565b6200062d8187878787876200087460201b60201c565b5b505b5050505050565b60006200064a8262000a3760201b60201c565b90506200065c62000a8360201b60201c565b919050565b62000675848484846200022860201b60201c565b50505050565b6200068f8484848462000a9560201b60201c565b50505050565b600033905090565b600060208202602084010151905092915050565b60008473ffffffffffffffffffffffffffffffffffffffff163b11156200086c578373ffffffffffffffffffffffffffffffffffffffff1663f23a6e6187878686866040518663ffffffff1660e01b81526004016200071595949392919062001748565b6020604051808303816000875af19250505080156200075457506040513d601f19601f8201168201806040525081019062000751919062001809565b60015b620007de573d806000811462000787576040519150601f19603f3d011682016040523d82523d6000602084013e6200078c565b606091505b506000815103620007d657846040517f57f447ce000000000000000000000000000000000000000000000000000000008152600401620007cd9190620012d0565b60405180910390fd5b805181602001fd5b63f23a6e6160e01b7bffffffffffffffffffffffffffffffffffffffffffffffffffffffff1916817bffffffffffffffffffffffffffffffffffffffffffffffffffffffff1916146200086a57846040517f57f447ce000000000000000000000000000000000000000000000000000000008152600401620008619190620012d0565b60405180910390fd5b505b505050505050565b60008473ffffffffffffffffffffffffffffffffffffffff163b111562000a2f578373ffffffffffffffffffffffffffffffffffffffff1663bc197c8187878686866040518663ffffffff1660e01b8152600401620008d895949392919062001909565b6020604051808303816000875af19250505080156200091757506040513d601f19601f8201168201806040525081019062000914919062001809565b60015b620009a1573d80600081146200094a576040519150601f19603f3d011682016040523d82523d6000602084013e6200094f565b606091505b5060008151036200099957846040517f57f447ce000000000000000000000000000000000000000000000000000000008152600401620009909190620012d0565b60405180910390fd5b805181602001fd5b63bc197c8160e01b7bffffffffffffffffffffffffffffffffffffffffffffffffffffffff1916817bffffffffffffffffffffffffffffffffffffffffffffffffffffffff19161462000a2d57846040517f57f447ce00000000000000000000000000000000000000000000000000000000815260040162000a249190620012d0565b60405180910390fd5b505b505050505050565b60003360014362000a49919062001644565b408360075460405160200162000a63949392919062001aca565b6040516020818303038152906040528051906020012060001c9050919050565b60076000815460010191905081905550565b62000aa98484848462000c7060201b60201c565b600073ffffffffffffffffffffffffffffffffffffffff168473ffffffffffffffffffffffffffffffffffffffff160362000b9a576000805b835181101562000b7c57600083828151811062000b045762000b0362001b20565b5b60200260200101519050806004600087858151811062000b295762000b2862001b20565b5b60200260200101518152602001908152602001600020600082825462000b50919062001b4f565b92505081905550808362000b65919062001b4f565b9250508062000b749062001b8a565b905062000ae2565b50806005600082825462000b91919062001b4f565b92505081905550505b600073ffffffffffffffffffffffffffffffffffffffff168373ffffffffffffffffffffffffffffffffffffffff160362000c6a576000805b835181101562000c5757600083828151811062000bf55762000bf462001b20565b5b60200260200101519050806004600087858151811062000c1a5762000c1962001b20565b5b60200260200101518152602001908152602001600020600082825403925050819055508083019250508062000c4f9062001b8a565b905062000bd3565b5080600560008282540392505081905550505b50505050565b805182511462000cbd57815181516040517f5b05999100000000000000000000000000000000000000000000000000000000815260040162000cb492919062001bd7565b60405180910390fd5b600062000ccf6200069560201b60201c565b905060005b835181101562000ef357600062000cf582866200069d60201b90919060201c565b9050600062000d0e83866200069d60201b90919060201c565b9050600073ffffffffffffffffffffffffffffffffffffffff168873ffffffffffffffffffffffffffffffffffffffff161462000e3f57600080600084815260200190815260200160002060008a73ffffffffffffffffffffffffffffffffffffffff1673ffffffffffffffffffffffffffffffffffffffff1681526020019081526020016000205490508181101562000de757888183856040517f03dee4c500000000000000000000000000000000000000000000000000000000815260040162000dde949392919062001c04565b60405180910390fd5b81810360008085815260200190815260200160002060008b73ffffffffffffffffffffffffffffffffffffffff1673ffffffffffffffffffffffffffffffffffffffff16815260200190815260200160002081905550505b600073ffffffffffffffffffffffffffffffffffffffff168773ffffffffffffffffffffffffffffffffffffffff161462000edd578060008084815260200190815260200160002060008973ffffffffffffffffffffffffffffffffffffffff1673ffffffffffffffffffffffffffffffffffffffff168152602001908152602001600020600082825462000ed5919062001b4f565b925050819055505b50508062000eeb9062001b8a565b905062000cd4565b50600183510362000fba57600062000f166000856200069d60201b90919060201c565b9050600062000f306000856200069d60201b90919060201c565b90508573ffffffffffffffffffffffffffffffffffffffff168773ffffffffffffffffffffffffffffffffffffffff168473ffffffffffffffffffffffffffffffffffffffff167fc3d58168c5ae7397731d063d5bbf3d657854427343f4c083240f7aacaa2d0f62858560405162000faa92919062001bd7565b60405180910390a450506200103b565b8373ffffffffffffffffffffffffffffffffffffffff168573ffffffffffffffffffffffffffffffffffffffff168273ffffffffffffffffffffffffffffffffffffffff167f4a39dc06d4c0dbc64b70af90fd698a233a518aa5d07e595d983b8c0526c8f7fb86866040516200103292919062001c51565b60405180910390a45b5050505050565b6000604051905090565b600080fd5b600080fd5b6000819050919050565b6200106b8162001056565b81146200107757600080fd5b50565b6000815190506200108b8162001060565b92915050565b600080fd5b600080fd5b6000601f19601f8301169050919050565b7f4e487b7100000000000000000000000000000000000000000000000000000000600052604160045260246000fd5b620010e6826200109b565b810181811067ffffffffffffffff82111715620011085762001107620010ac565b5b80604052505050565b60006200111d62001042565b90506200112b8282620010db565b919050565b600067ffffffffffffffff8211156200114e576200114d620010ac565b5b62001159826200109b565b9050602081019050919050565b60005b838110156200118657808201518184015260208101905062001169565b60008484015250505050565b6000620011a9620011a38462001130565b62001111565b905082815260208101848484011115620011c857620011c762001096565b5b620011d584828562001166565b509392505050565b600082601f830112620011f557620011f462001091565b5b81516200120784826020860162001192565b91505092915050565b6000806000606084860312156200122c576200122b6200104c565b5b60006200123c868287016200107a565b93505060206200124f868287016200107a565b925050604084015167ffffffffffffffff81111562001273576200127262001051565b5b6200128186828701620011dd565b9150509250925092565b600073ffffffffffffffffffffffffffffffffffffffff82169050919050565b6000620012b8826200128b565b9050919050565b620012ca81620012ab565b82525050565b6000602082019050620012e76000830184620012bf565b92915050565b600081519050919050565b7f4e487b7100000000000000000000000000000000000000000000000000000000600052602260045260246000fd5b600060028204905060018216806200134057607f821691505b602082108103620013565762001355620012f8565b5b50919050565b60008190508160005260206000209050919050565b60006020601f8301049050919050565b600082821b905092915050565b600060088302620013c07fffffffffffffffffffffffffffffffffffffffffffffffffffffffffffffffff8262001381565b620013cc868362001381565b95508019841693508086168417925050509392505050565b6000819050919050565b60006200140f62001409620014038462001056565b620013e4565b62001056565b9050919050565b6000819050919050565b6200142b83620013ee565b620014436200143a8262001416565b8484546200138e565b825550505050565b600090565b6200145a6200144b565b6200146781848462001420565b505050565b5b818110156200148f576200148360008262001450565b6001810190506200146d565b5050565b601f821115620014de57620014a8816200135c565b620014b38462001371565b81016020851015620014c3578190505b620014db620014d28562001371565b8301826200146c565b50505b505050565b600082821c905092915050565b60006200150360001984600802620014e3565b1980831691505092915050565b60006200151e8383620014f0565b9150826002028217905092915050565b6200153982620012ed565b67ffffffffffffffff811115620015555762001554620010ac565b5b62001561825462001327565b6200156e82828562001493565b600060209050601f831160018114620015a6576000841562001591578287015190505b6200159d858262001510565b8655506200160d565b601f198416620015b6866200135c565b60005b82811015620015e057848901518255600182019150602085019450602081019050620015b9565b86831015620016005784890151620015fc601f891682620014f0565b8355505b6001600288020188555050505b505050505050565b7f4e487b7100000000000000000000000000000000000000000000000000000000600052601160045260246000fd5b6000620016518262001056565b91506200165e8362001056565b925082820390508181111562001679576200167862001615565b5b92915050565b600081905092915050565b60006200169782620012ed565b620016a381856200167f565b9350620016b581856020860162001166565b80840191505092915050565b6000620016cf82846200168a565b915081905092915050565b620016e58162001056565b82525050565b600081519050919050565b600082825260208201905092915050565b60006200171482620016eb565b620017208185620016f6565b93506200173281856020860162001166565b6200173d816200109b565b840191505092915050565b600060a0820190506200175f6000830188620012bf565b6200176e6020830187620012bf565b6200177d6040830186620016da565b6200178c6060830185620016da565b8181036080830152620017a0818462001707565b90509695505050505050565b60007fffffffff0000000000000000000000000000000000000000000000000000000082169050919050565b620017e381620017ac565b8114620017ef57600080fd5b50565b6000815190506200180381620017d8565b92915050565b6000602082840312156200182257620018216200104c565b5b60006200183284828501620017f2565b91505092915050565b600081519050919050565b600082825260208201905092915050565b6000819050602082019050919050565b620018728162001056565b82525050565b600062001886838362001867565b60208301905092915050565b6000602082019050919050565b6000620018ac826200183b565b620018b8818562001846565b9350620018c58362001857565b8060005b83811015620018fc578151620018e0888262001878565b9750620018ed8362001892565b925050600181019050620018c9565b5085935050505092915050565b600060a082019050620019206000830188620012bf565b6200192f6020830187620012bf565b81810360408301526200194381866200189f565b905081810360608301526200195981856200189f565b905081810360808301526200196f818462001707565b90509695505050505050565b60008160601b9050919050565b600062001995826200197b565b9050919050565b6000620019a98262001988565b9050919050565b620019c5620019bf82620012ab565b6200199c565b82525050565b6000819050919050565b6000819050919050565b620019f4620019ee82620019cb565b620019d5565b82525050565b7f4e487b7100000000000000000000000000000000000000000000000000000000600052602160045260246000fd5b6003811062001a3d5762001a3c620019fa565b5b50565b600081905062001a508262001a29565b919050565b600062001a628262001a40565b9050919050565b60008160f81b9050919050565b600062001a838262001a69565b9050919050565b62001a9f62001a998262001a55565b62001a76565b82525050565b6000819050919050565b62001ac462001abe8262001056565b62001aa5565b82525050565b600062001ad88287620019b0565b60148201915062001aea8286620019df565b60208201915062001afc828562001a8a565b60018201915062001b0e828462001aaf565b60208201915081905095945050505050565b7f4e487b7100000000000000000000000000000000000000000000000000000000600052603260045260246000fd5b600062001b5c8262001056565b915062001b698362001056565b925082820190508082111562001b845762001b8362001615565b5b92915050565b600062001b978262001056565b91507fffffffffffffffffffffffffffffffffffffffffffffffffffffffffffffffff820362001bcc5762001bcb62001615565b5b600182019050919050565b600060408201905062001bee6000830185620016da565b62001bfd6020830184620016da565b9392505050565b600060808201905062001c1b6000830187620012bf565b62001c2a6020830186620016da565b62001c396040830185620016da565b62001c486060830184620016da565b95945050505050565b6000604082019050818103600083015262001c6d81856200189f565b9050818103602083015262001c8381846200189f565b90509392505050565b6152288062001c9c6000396000f3fe6080604052600436106101f75760003560e01c8063715018a61161010d578063c96da272116100a0578063edf6a3d41161006f578063edf6a3d414610749578063f242432a14610786578063f2fde38b146107af578063f5298aca146107d8578063f6cabe7214610801576101f7565b8063c96da2721461068b578063dce9465f146106b6578063e6c0e6d5146106e1578063e985e9c51461070c576101f7565b8063a22cb465116100dc578063a22cb465146105d3578063bd441810146105fc578063bd85b03914610625578063c7eb58e614610662576101f7565b8063715018a61461054c57806379b8fd7e146105635780638b89b9101461058c5780638da5cb5b146105a8576101f7565b80632eb2c2d6116101905780634f558e791161015f5780634f558e791461046957806352e9606f146104a65780635502848b146104d15780636b20c454146104fa5780636d93aa8214610523576101f7565b80632eb2c2d61461038957806331273702146103b25780634a1b1fc1146103ef5780634e1273f41461042c576101f7565b806308cdf575116101cc57806308cdf575146102c85780630dd689e6146102e45780630e89341c1461032157806318160ddd1461035e576101f7565b806269ed7d146101fc578062fdd58e1461022557806301ffc9a71461026257806302fe53051461029f575b600080fd5b34801561020857600080fd5b50610223600480360381019061021e9190613c0b565b61082a565b005b34801561023157600080fd5b5061024c60048036038101906102479190613c96565b61083c565b6040516102599190613ce5565b60405180910390f35b34801561026e57600080fd5b5061028960048036038101906102849190613d58565b610896565b6040516102969190613da0565b60405180910390f35b3480156102ab57600080fd5b506102c660048036038101906102c19190613f01565b610978565b005b6102e260048036038101906102dd9190613fcf565b61098c565b005b3480156102f057600080fd5b5061030b60048036038101906103069190614043565b610a8d565b6040516103189190613da0565b60405180910390f35b34801561032d57600080fd5b5061034860048036038101906103439190613c0b565b610b76565b60405161035591906140ef565b60405180910390f35b34801561036a57600080fd5b50610373610c1b565b6040516103809190613ce5565b60405180910390f35b34801561039557600080fd5b506103b060048036038101906103ab9190614275565b610c25565b005b3480156103be57600080fd5b506103d960048036038101906103d49190613c0b565b610ccd565b6040516103e69190613ce5565b60405180910390f35b3480156103fb57600080fd5b5061041660048036038101906104119190613c0b565b610cf1565b6040516104239190613ce5565b60405180910390f35b34801561043857600080fd5b50610453600480360381019061044e9190614407565b610d09565b604051610460919061453d565b60405180910390f35b34801561047557600080fd5b50610490600480360381019061048b9190613c0b565b610e18565b60405161049d9190613da0565b60405180910390f35b3480156104b257600080fd5b506104bb610e2c565b6040516104c89190613ce5565b60405180910390f35b3480156104dd57600080fd5b506104f860048036038101906104f3919061458b565b610e32565b005b34801561050657600080fd5b50610521600480360381019061051c91906145cb565b61112c565b005b34801561052f57600080fd5b5061054a60048036038101906105459190613c0b565b6111d8565b005b34801561055857600080fd5b5061056161137d565b005b34801561056f57600080fd5b5061058a60048036038101906105859190613c0b565b611391565b005b6105a660048036038101906105a19190613c0b565b61177c565b005b3480156105b457600080fd5b506105bd611843565b6040516105ca9190614665565b60405180910390f35b3480156105df57600080fd5b506105fa60048036038101906105f59190614680565b61186d565b005b34801561060857600080fd5b50610623600480360381019061061e91906146c0565b611883565b005b34801561063157600080fd5b5061064c60048036038101906106479190613c0b565b611d8b565b6040516106599190613ce5565b60405180910390f35b34801561066e57600080fd5b5061068960048036038101906106849190614700565b611da8565b005b34801561069757600080fd5b506106a0611fe7565b6040516106ad9190613ce5565b60405180910390f35b3480156106c257600080fd5b506106cb611fed565b6040516106d89190613ce5565b60405180910390f35b3480156106ed57600080fd5b506106f6611ff3565b6040516107039190613ce5565b60405180910390f35b34801561071857600080fd5b50610733600480360381019061072e9190614740565b611ff9565b6040516107409190613da0565b60405180910390f35b34801561075557600080fd5b50610770600480360381019061076b91906146c0565b61208d565b60405161077d9190613da0565b60405180910390f35b34801561079257600080fd5b506107ad60048036038101906107a89190614780565b6121c1565b005b3480156107bb57600080fd5b506107d660048036038101906107d19190614043565b612269565b005b3480156107e457600080fd5b506107ff60048036038101906107fa9190614817565b6122ef565b005b34801561080d57600080fd5b5061082860048036038101906108239190614700565b61239b565b005b61083261272e565b80600b8190555050565b600080600083815260200190815260200160002060008473ffffffffffffffffffffffffffffffffffffffff1673ffffffffffffffffffffffffffffffffffffffff16815260200190815260200160002054905092915050565b60007fd9b67a26000000000000000000000000000000000000000000000000000000007bffffffffffffffffffffffffffffffffffffffffffffffffffffffff1916827bffffffffffffffffffffffffffffffffffffffffffffffffffffffff1916148061096157507f0e89341c000000000000000000000000000000000000000000000000000000007bffffffffffffffffffffffffffffffffffffffffffffffffffffffff1916827bffffffffffffffffffffffffffffffffffffffffffffffffffffffff1916145b806109715750610970826127b5565b5b9050919050565b61098061272e565b6109898161281f565b50565b601260003373ffffffffffffffffffffffffffffffffffffffff1673ffffffffffffffffffffffffffffffffffffffff168152602001908152602001600020600085815260200190815260200160002060009054906101000a900460ff16610a20576040517fd2534e0f00000000000000000000000000000000000000000000000000000000815260040160405180910390fd5b610a2933610a8d565b610a3e57610a3984848484612832565b610a87565b600854341015610a7a576040517f3ca5585700000000000000000000000000000000000000000000000000000000815260040160405180910390fd5b610a8684848484612832565b5b50505050565b600080600a60008473ffffffffffffffffffffffffffffffffffffffff1673ffffffffffffffffffffffffffffffffffffffff16815260200190815260200160002054905060008103610ae4576000915050610b71565b6000806000610af2846129da565b9250925092506000806000610b06426129da565b9250925092508286141580610b1b5750818514155b80610b265750808414155b15610b3b576000975050505050505050610b71565b8286148015610b4957508185145b8015610b5457508084145b15610b69576001975050505050505050610b71565b505050505050505b919050565b6060601960008381526020019081526020016000208054610b9690614899565b80601f0160208091040260200160405190810160405280929190818152602001828054610bc290614899565b8015610c0f5780601f10610be457610100808354040283529160200191610c0f565b820191906000526020600020905b815481529060010190602001808311610bf257829003601f168201915b50505050509050919050565b6000600554905090565b6000610c2f612aed565b90508073ffffffffffffffffffffffffffffffffffffffff168673ffffffffffffffffffffffffffffffffffffffff1614158015610c745750610c728682611ff9565b155b15610cb85780866040517fe237d922000000000000000000000000000000000000000000000000000000008152600401610caf9291906148ca565b60405180910390fd5b610cc58686868686612af5565b505050505050565b60178181548110610cdd57600080fd5b906000526020600020016000915090505481565b60186020528060005260406000206000915090505481565b60608151835114610d5557815183516040517f5b059991000000000000000000000000000000000000000000000000000000008152600401610d4c9291906148f3565b60405180910390fd5b6000835167ffffffffffffffff811115610d7257610d71613dd6565b5b604051908082528060200260200182016040528015610da05781602001602082028036833780820191505090505b50905060005b8451811015610e0d57610ddd610dc58287612bed90919063ffffffff16565b610dd88387612c0190919063ffffffff16565b61083c565b828281518110610df057610def61491c565b5b60200260200101818152505080610e069061497a565b9050610da6565b508091505092915050565b600080610e2483611d8b565b119050919050565b600b5481565b813373ffffffffffffffffffffffffffffffffffffffff166013600083815260200190815260200160002060009054906101000a900473ffffffffffffffffffffffffffffffffffffffff1673ffffffffffffffffffffffffffffffffffffffff1614610ecb576040517fd2534e0f00000000000000000000000000000000000000000000000000000000815260040160405180910390fd5b6016600084815260200190815260200160002060000160009054906101000a900460ff168015610ef9575081155b15610fb75760178390806001815401808255809150506001900390600052602060002001600090919091909150556001601780549050610f3991906149c2565b6018600085815260200190815260200160002081905550816016600085815260200190815260200160002060000160006101000a81548160ff021916908315150217905550827fda46ed8cfe766e890731d43365aa574e071d3da7ebedc7fd46c253d453db873d83604051610fae9190613da0565b60405180910390a25b6016600084815260200190815260200160002060000160009054906101000a900460ff16158015610fe55750815b15611127576000601860008581526020019081526020016000205490506000600160178054905061101691906149c2565b905080821461107f576000601782815481106110355761103461491c565b5b9060005260206000200154905080601784815481106110575761105661491c565b5b9060005260206000200181905550826018600083815260200190815260200160002081905550505b6017805480611091576110906149f6565b5b600190038181906000526020600020016000905590556018600086815260200190815260200160002060009055836016600087815260200190815260200160002060000160006101000a81548160ff021916908315150217905550847fda46ed8cfe766e890731d43365aa574e071d3da7ebedc7fd46c253d453db873d8560405161111c9190613da0565b60405180910390a250505b505050565b611134612aed565b73ffffffffffffffffffffffffffffffffffffffff168373ffffffffffffffffffffffffffffffffffffffff161415801561117d575061117b83611176612aed565b611ff9565b155b156111c85761118a612aed565b836040517fe237d9220000000000000000000000000000000000000000000000000000000081526004016111bf9291906148ca565b60405180910390fd5b6111d3838383612c15565b505050565b6016600082815260200190815260200160002060000160009054906101000a900460ff16611232576040517faa41bb8100000000000000000000000000000000000000000000000000000000815260040160405180910390fd5b3373ffffffffffffffffffffffffffffffffffffffff166013600083815260200190815260200160002060009054906101000a900473ffffffffffffffffffffffffffffffffffffffff1673ffffffffffffffffffffffffffffffffffffffff16036112ca576040517fa719f77d00000000000000000000000000000000000000000000000000000000815260040160405180910390fd5b60016016600083815260200190815260200160002060010160003373ffffffffffffffffffffffffffffffffffffffff1673ffffffffffffffffffffffffffffffffffffffff16815260200190815260200160002060006101000a81548160ff0219169083151502179055503373ffffffffffffffffffffffffffffffffffffffff16817fab3ff7c91ff909c74f923baa5f9c14eeeaf0c6d7af6a9306ba7e0ead9c283e5860405160405180910390a350565b61138561272e565b61138f6000612ca9565b565b600d60003373ffffffffffffffffffffffffffffffffffffffff1673ffffffffffffffffffffffffffffffffffffffff168152602001908152602001600020600082815260200190815260200160002060009054906101000a900460ff16611425576040517fdf8ddd4900000000000000000000000000000000000000000000000000000000815260040160405180910390fd5b6114463033600160ff16600160405180602001604052806000815250612d6f565b6000600d60003373ffffffffffffffffffffffffffffffffffffffff1673ffffffffffffffffffffffffffffffffffffffff168152602001908152602001600020600083815260200190815260200160002060006101000a81548160ff0219169083151502179055506000600f600083815260200190815260200160002060003373ffffffffffffffffffffffffffffffffffffffff1673ffffffffffffffffffffffffffffffffffffffff1681526020019081526020016000205490506000600e60008481526020019081526020016000206001600e60008681526020019081526020016000208054905061153c91906149c2565b8154811061154d5761154c61491c565b5b9060005260206000200160009054906101000a900473ffffffffffffffffffffffffffffffffffffffff16905080600e600085815260200190815260200160002083815481106115a05761159f61491c565b5b9060005260206000200160006101000a81548173ffffffffffffffffffffffffffffffffffffffff021916908373ffffffffffffffffffffffffffffffffffffffff16021790555081600f600085815260200190815260200160002060008373ffffffffffffffffffffffffffffffffffffffff1673ffffffffffffffffffffffffffffffffffffffff16815260200190815260200160002081905550600e60008481526020019081526020016000208054806116605761165f6149f6565b5b6001900381819060005260206000200160006101000a81549073ffffffffffffffffffffffffffffffffffffffff02191690559055600f600084815260200190815260200160002060003373ffffffffffffffffffffffffffffffffffffffff1673ffffffffffffffffffffffffffffffffffffffff16815260200190815260200160002060009055826013600085815260200190815260200160002060009054906101000a900473ffffffffffffffffffffffffffffffffffffffff1673ffffffffffffffffffffffffffffffffffffffff163373ffffffffffffffffffffffffffffffffffffffff167fa357ddac6953b1489aacc22ecb8d0e074b7eb0c47fb0793fc1454bd2120e767b60405160405180910390a4505050565b611784612e7a565b6000606482600b546117969190614a25565b6117a09190614a96565b9050600a60646117b09190614a25565b82106117de576064600c54826117c69190614a25565b6117d09190614a96565b816117db91906149c2565b90505b80341015611818576040517f3ca5585700000000000000000000000000000000000000000000000000000000815260040160405180910390fd5b61183733600160ff168460405180602001604052806000815250612ec0565b50611840612f59565b50565b6000600360009054906101000a900473ffffffffffffffffffffffffffffffffffffffff16905090565b61187f611878612aed565b8383612f63565b5050565b601260003373ffffffffffffffffffffffffffffffffffffffff1673ffffffffffffffffffffffffffffffffffffffff168152602001908152602001600020600083815260200190815260200160002060009054906101000a900460ff16611917576040517fd2534e0f00000000000000000000000000000000000000000000000000000000815260040160405180910390fd5b601260003373ffffffffffffffffffffffffffffffffffffffff1673ffffffffffffffffffffffffffffffffffffffff168152602001908152602001600020600082815260200190815260200160002060009054906101000a900460ff161515601260003373ffffffffffffffffffffffffffffffffffffffff1673ffffffffffffffffffffffffffffffffffffffff168152602001908152602001600020600084815260200190815260200160002060009054906101000a900460ff16151503611a0e576040517fa719f77d00000000000000000000000000000000000000000000000000000000815260040160405180910390fd5b600073ffffffffffffffffffffffffffffffffffffffff166013600083815260200190815260200160002060009054906101000a900473ffffffffffffffffffffffffffffffffffffffff1673ffffffffffffffffffffffffffffffffffffffff1603611aa7576040517f55e86fa400000000000000000000000000000000000000000000000000000000815260040160405180910390fd5b6001611ab733600160ff1661083c565b1015611aef576040517f4d3e3f8d00000000000000000000000000000000000000000000000000000000815260040160405180910390fd5b600d60003373ffffffffffffffffffffffffffffffffffffffff1673ffffffffffffffffffffffffffffffffffffffff168152602001908152602001600020600082815260200190815260200160002060009054906101000a900460ff1615611b84576040517f58220dc600000000000000000000000000000000000000000000000000000000815260040160405180910390fd5b611ba53330600160ff16600160405180602001604052806000815250612d6f565b6001600d60003373ffffffffffffffffffffffffffffffffffffffff1673ffffffffffffffffffffffffffffffffffffffff168152602001908152602001600020600083815260200190815260200160002060006101000a81548160ff021916908315150217905550600e6000828152602001908152602001600020339080600181540180825580915050600190039060005260206000200160009091909190916101000a81548173ffffffffffffffffffffffffffffffffffffffff021916908373ffffffffffffffffffffffffffffffffffffffff1602179055506001600e600083815260200190815260200160002080549050611ca591906149c2565b600f600083815260200190815260200160002060003373ffffffffffffffffffffffffffffffffffffffff1673ffffffffffffffffffffffffffffffffffffffff16815260200190815260200160002081905550806013600083815260200190815260200160002060009054906101000a900473ffffffffffffffffffffffffffffffffffffffff1673ffffffffffffffffffffffffffffffffffffffff163373ffffffffffffffffffffffffffffffffffffffff167f3e1f5f35efc2093b6237337853093859ce374de81f708e6f27c9f54661906c9f60405160405180910390a45050565b600060046000838152602001908152602001600020549050919050565b813373ffffffffffffffffffffffffffffffffffffffff166013600083815260200190815260200160002060009054906101000a900473ffffffffffffffffffffffffffffffffffffffff1673ffffffffffffffffffffffffffffffffffffffff1614611e41576040517fd2534e0f00000000000000000000000000000000000000000000000000000000815260040160405180910390fd5b6016600084815260200190815260200160002060000160009054906101000a900460ff16611e9b576040517faa41bb8100000000000000000000000000000000000000000000000000000000815260040160405180910390fd5b6016600084815260200190815260200160002060010160008373ffffffffffffffffffffffffffffffffffffffff1673ffffffffffffffffffffffffffffffffffffffff16815260200190815260200160002060009054906101000a900460ff16611f32576040517fed728a2d00000000000000000000000000000000000000000000000000000000815260040160405180910390fd5b60006016600085815260200190815260200160002060010160008473ffffffffffffffffffffffffffffffffffffffff1673ffffffffffffffffffffffffffffffffffffffff16815260200190815260200160002060006101000a81548160ff0219169083151502179055508173ffffffffffffffffffffffffffffffffffffffff16837f08ab828a5c942c7c37031d02945cae83c31ee580a44a2a4d74a1f1912932c39f60405160405180910390a3505050565b60085481565b60095481565b600c5481565b6000600160008473ffffffffffffffffffffffffffffffffffffffff1673ffffffffffffffffffffffffffffffffffffffff16815260200190815260200160002060008373ffffffffffffffffffffffffffffffffffffffff1673ffffffffffffffffffffffffffffffffffffffff16815260200190815260200160002060009054906101000a900460ff16905092915050565b6000600d60006013600086815260200190815260200160002060009054906101000a900473ffffffffffffffffffffffffffffffffffffffff1673ffffffffffffffffffffffffffffffffffffffff1673ffffffffffffffffffffffffffffffffffffffff168152602001908152602001600020600083815260200190815260200160002060009054906101000a900460ff1680156121b95750600d60006013600085815260200190815260200160002060009054906101000a900473ffffffffffffffffffffffffffffffffffffffff1673ffffffffffffffffffffffffffffffffffffffff1673ffffffffffffffffffffffffffffffffffffffff168152602001908152602001600020600084815260200190815260200160002060009054906101000a900460ff165b905092915050565b60006121cb612aed565b90508073ffffffffffffffffffffffffffffffffffffffff168673ffffffffffffffffffffffffffffffffffffffff1614158015612210575061220e8682611ff9565b155b156122545780866040517fe237d92200000000000000000000000000000000000000000000000000000000815260040161224b9291906148ca565b60405180910390fd5b6122618686868686612d6f565b505050505050565b61227161272e565b600073ffffffffffffffffffffffffffffffffffffffff168173ffffffffffffffffffffffffffffffffffffffff16036122e35760006040517f1e4fbdf70000000000000000000000000000000000000000000000000000000081526004016122da9190614665565b60405180910390fd5b6122ec81612ca9565b50565b6122f7612aed565b73ffffffffffffffffffffffffffffffffffffffff168373ffffffffffffffffffffffffffffffffffffffff1614158015612340575061233e83612339612aed565b611ff9565b155b1561238b5761234d612aed565b836040517fe237d9220000000000000000000000000000000000000000000000000000000081526004016123829291906148ca565b60405180910390fd5b6123968383836130d3565b505050565b813373ffffffffffffffffffffffffffffffffffffffff166013600083815260200190815260200160002060009054906101000a900473ffffffffffffffffffffffffffffffffffffffff1673ffffffffffffffffffffffffffffffffffffffff1614612434576040517fd2534e0f00000000000000000000000000000000000000000000000000000000815260040160405180910390fd5b6016600084815260200190815260200160002060000160009054906101000a900460ff1661248e576040517faa41bb8100000000000000000000000000000000000000000000000000000000815260040160405180910390fd5b6016600084815260200190815260200160002060010160008373ffffffffffffffffffffffffffffffffffffffff1673ffffffffffffffffffffffffffffffffffffffff16815260200190815260200160002060009054906101000a900460ff16612525576040517fed728a2d00000000000000000000000000000000000000000000000000000000815260040160405180910390fd5b6001600d60008473ffffffffffffffffffffffffffffffffffffffff1673ffffffffffffffffffffffffffffffffffffffff168152602001908152602001600020600085815260200190815260200160002060006101000a81548160ff021916908315150217905550600e6000848152602001908152602001600020829080600181540180825580915050600190039060005260206000200160009091909190916101000a81548173ffffffffffffffffffffffffffffffffffffffff021916908373ffffffffffffffffffffffffffffffffffffffff1602179055506001600e60008581526020019081526020016000208054905061262591906149c2565b600f600085815260200190815260200160002060008473ffffffffffffffffffffffffffffffffffffffff1673ffffffffffffffffffffffffffffffffffffffff1681526020019081526020016000208190555060006016600085815260200190815260200160002060010160008473ffffffffffffffffffffffffffffffffffffffff1673ffffffffffffffffffffffffffffffffffffffff16815260200190815260200160002060006101000a81548160ff0219169083151502179055508173ffffffffffffffffffffffffffffffffffffffff16837f6489b0a14ffba263dcf9673b6c6134ab5c8283fbca0b51233e07bf87e1bcbd5f60405160405180910390a3505050565b612736612aed565b73ffffffffffffffffffffffffffffffffffffffff16612754611843565b73ffffffffffffffffffffffffffffffffffffffff16146127b357612777612aed565b6040517f118cdaa70000000000000000000000000000000000000000000000000000000081526004016127aa9190614665565b60405180910390fd5b565b60007f01ffc9a7000000000000000000000000000000000000000000000000000000007bffffffffffffffffffffffffffffffffffffffffffffffffffffffff1916827bffffffffffffffffffffffffffffffffffffffffffffffffffffffff1916149050919050565b806002908161282e9190614c73565b5050565b600061283e600261317a565b905061285c3382600160405180602001604052806000815250613194565b816011600083815260200190815260200160002060006101000a81548160ff0219169083600181111561289257612891614d45565b5b0217905550336010600083815260200190815260200160002060006101000a81548173ffffffffffffffffffffffffffffffffffffffff021916908373ffffffffffffffffffffffffffffffffffffffff160217905550600160156000878152602001908152602001600020600083815260200190815260200160002060006101000a81548160ff0219169083151502179055508383601960008481526020019081526020016000209182612948929190614d7f565b508383604051612959929190614e7f565b604051809103902081867fd4a0af00cef1637741c0df83ac0affe61b90222b342a2e3cd1e4d41beda9a0e460405160405180910390a442600a60003373ffffffffffffffffffffffffffffffffffffffff1673ffffffffffffffffffffffffffffffffffffffff168152602001908152602001600020819055505050505050565b6000806000806201518085816129f3576129f2614a67565b5b04905060006226496582019050600062023ab18260040281612a1857612a17614a67565b5b059050600460038262023ab1020181612a3457612a33614a67565b5b0582039150600062164b0960018401610fa00281612a5557612a54614a67565b5b059050601f6004826105b50281612a6f57612a6e614a67565b5b058403019250600061098f8460500281612a8c57612a8b614a67565b5b059050600060508261098f0281612aa657612aa5614a67565b5b0585039050600b8281612abc57612abb614a67565b5b05945084600c0260028301039150848360318603606402010192508296508197508098505050505050509193909250565b600033905090565b600073ffffffffffffffffffffffffffffffffffffffff168473ffffffffffffffffffffffffffffffffffffffff1603612b675760006040517f57f447ce000000000000000000000000000000000000000000000000000000008152600401612b5e9190614665565b60405180910390fd5b600073ffffffffffffffffffffffffffffffffffffffff168573ffffffffffffffffffffffffffffffffffffffff1603612bd95760006040517f01a83514000000000000000000000000000000000000000000000000000000008152600401612bd09190614665565b60405180910390fd5b612be685858585856131a6565b5050505050565b600060208202602084010151905092915050565b600060208202602084010151905092915050565b600073ffffffffffffffffffffffffffffffffffffffff168373ffffffffffffffffffffffffffffffffffffffff1603612c875760006040517f01a83514000000000000000000000000000000000000000000000000000000008152600401612c7e9190614665565b60405180910390fd5b612ca48360008484604051806020016040528060008152506131a6565b505050565b6000600360009054906101000a900473ffffffffffffffffffffffffffffffffffffffff16905081600360006101000a81548173ffffffffffffffffffffffffffffffffffffffff021916908373ffffffffffffffffffffffffffffffffffffffff1602179055508173ffffffffffffffffffffffffffffffffffffffff168173ffffffffffffffffffffffffffffffffffffffff167f8be0079c531659141344cd1fd0a4f28419497f9722a3daafe3b4186f6b6457e060405160405180910390a35050565b600073ffffffffffffffffffffffffffffffffffffffff168473ffffffffffffffffffffffffffffffffffffffff1603612de15760006040517f57f447ce000000000000000000000000000000000000000000000000000000008152600401612dd89190614665565b60405180910390fd5b600073ffffffffffffffffffffffffffffffffffffffff168573ffffffffffffffffffffffffffffffffffffffff1603612e535760006040517f01a83514000000000000000000000000000000000000000000000000000000008152600401612e4a9190614665565b60405180910390fd5b600080612e608585613258565b91509150612e7187878484876131a6565b50505050505050565b600260065403612eb6576040517f3ee5aeb500000000000000000000000000000000000000000000000000000000815260040160405180910390fd5b6002600681905550565b600073ffffffffffffffffffffffffffffffffffffffff168473ffffffffffffffffffffffffffffffffffffffff1603612f325760006040517f57f447ce000000000000000000000000000000000000000000000000000000008152600401612f299190614665565b60405180910390fd5b600080612f3f8585613258565b91509150612f516000878484876131a6565b505050505050565b6001600681905550565b600073ffffffffffffffffffffffffffffffffffffffff168273ffffffffffffffffffffffffffffffffffffffff1603612fd55760006040517fced3e100000000000000000000000000000000000000000000000000000000008152600401612fcc9190614665565b60405180910390fd5b80600160008573ffffffffffffffffffffffffffffffffffffffff1673ffffffffffffffffffffffffffffffffffffffff16815260200190815260200160002060008473ffffffffffffffffffffffffffffffffffffffff1673ffffffffffffffffffffffffffffffffffffffff16815260200190815260200160002060006101000a81548160ff0219169083151502179055508173ffffffffffffffffffffffffffffffffffffffff168373ffffffffffffffffffffffffffffffffffffffff167f17307eab39ab6107e8899845ad3d59bd9653f200f220920489ca2b5937696c31836040516130c69190613da0565b60405180910390a3505050565b600073ffffffffffffffffffffffffffffffffffffffff168373ffffffffffffffffffffffffffffffffffffffff16036131455760006040517f01a8351400000000000000000000000000000000000000000000000000000000815260040161313c9190614665565b60405180910390fd5b6000806131528484613258565b915091506131738560008484604051806020016040528060008152506131a6565b5050505050565b600061318582613288565b905061318f6132d0565b919050565b6131a084848484612ec0565b50505050565b6131b2858585856132e2565b600073ffffffffffffffffffffffffffffffffffffffff168473ffffffffffffffffffffffffffffffffffffffff16146132515760006131f0612aed565b90506001845103613240576000613211600086612c0190919063ffffffff16565b90506000613229600086612c0190919063ffffffff16565b90506132398389898585896132f4565b505061324f565b61324e8187878787876134a8565b5b505b5050505050565b60608060405191506001825283602083015260408201905060018152826020820152604081016040529250929050565b60003360014361329891906149c2565b40836007546040516020016132b09493929190614f9b565b6040516020818303038152906040528051906020012060001c9050919050565b60076000815460010191905081905550565b6132ee8484848461365c565b50505050565b60008473ffffffffffffffffffffffffffffffffffffffff163b11156134a0578373ffffffffffffffffffffffffffffffffffffffff1663f23a6e6187878686866040518663ffffffff1660e01b815260040161335595949392919061503e565b6020604051808303816000875af192505050801561339157506040513d601f19601f8201168201806040525081019061338e91906150ad565b60015b613415573d80600081146133c1576040519150601f19603f3d011682016040523d82523d6000602084013e6133c6565b606091505b50600081510361340d57846040517f57f447ce0000000000000000000000000000000000000000000000000000000081526004016134049190614665565b60405180910390fd5b805181602001fd5b63f23a6e6160e01b7bffffffffffffffffffffffffffffffffffffffffffffffffffffffff1916817bffffffffffffffffffffffffffffffffffffffffffffffffffffffff19161461349e57846040517f57f447ce0000000000000000000000000000000000000000000000000000000081526004016134959190614665565b60405180910390fd5b505b505050505050565b60008473ffffffffffffffffffffffffffffffffffffffff163b1115613654578373ffffffffffffffffffffffffffffffffffffffff1663bc197c8187878686866040518663ffffffff1660e01b81526004016135099594939291906150da565b6020604051808303816000875af192505050801561354557506040513d601f19601f8201168201806040525081019061354291906150ad565b60015b6135c9573d8060008114613575576040519150601f19603f3d011682016040523d82523d6000602084013e61357a565b606091505b5060008151036135c157846040517f57f447ce0000000000000000000000000000000000000000000000000000000081526004016135b89190614665565b60405180910390fd5b805181602001fd5b63bc197c8160e01b7bffffffffffffffffffffffffffffffffffffffffffffffffffffffff1916817bffffffffffffffffffffffffffffffffffffffffffffffffffffffff19161461365257846040517f57f447ce0000000000000000000000000000000000000000000000000000000081526004016136499190614665565b60405180910390fd5b505b505050505050565b61366884848484613813565b600073ffffffffffffffffffffffffffffffffffffffff168473ffffffffffffffffffffffffffffffffffffffff1603613748576000805b835181101561372c5760008382815181106136be576136bd61491c565b5b6020026020010151905080600460008785815181106136e0576136df61491c565b5b6020026020010151815260200190815260200160002060008282546137059190615142565b9250508190555080836137189190615142565b925050806137259061497a565b90506136a0565b50806005600082825461373f9190615142565b92505081905550505b600073ffffffffffffffffffffffffffffffffffffffff168373ffffffffffffffffffffffffffffffffffffffff160361380d576000805b83518110156137fa57600083828151811061379e5761379d61491c565b5b6020026020010151905080600460008785815181106137c0576137bf61491c565b5b6020026020010151815260200190815260200160002060008282540392505081905550808301925050806137f39061497a565b9050613780565b5080600560008282540392505081905550505b50505050565b805182511461385d57815181516040517f5b0599910000000000000000000000000000000000000000000000000000000081526004016138549291906148f3565b60405180910390fd5b6000613867612aed565b905060005b8351811015613a7c57600061388a8286612c0190919063ffffffff16565b905060006138a18386612c0190919063ffffffff16565b9050600073ffffffffffffffffffffffffffffffffffffffff168873ffffffffffffffffffffffffffffffffffffffff16146139ce57600080600084815260200190815260200160002060008a73ffffffffffffffffffffffffffffffffffffffff1673ffffffffffffffffffffffffffffffffffffffff1681526020019081526020016000205490508181101561397657888183856040517f03dee4c500000000000000000000000000000000000000000000000000000000815260040161396d9493929190615176565b60405180910390fd5b81810360008085815260200190815260200160002060008b73ffffffffffffffffffffffffffffffffffffffff1673ffffffffffffffffffffffffffffffffffffffff16815260200190815260200160002081905550505b600073ffffffffffffffffffffffffffffffffffffffff168773ffffffffffffffffffffffffffffffffffffffff1614613a69578060008084815260200190815260200160002060008973ffffffffffffffffffffffffffffffffffffffff1673ffffffffffffffffffffffffffffffffffffffff1681526020019081526020016000206000828254613a619190615142565b925050819055505b505080613a759061497a565b905061386c565b506001835103613b3b576000613a9c600085612c0190919063ffffffff16565b90506000613ab4600085612c0190919063ffffffff16565b90508573ffffffffffffffffffffffffffffffffffffffff168773ffffffffffffffffffffffffffffffffffffffff168473ffffffffffffffffffffffffffffffffffffffff167fc3d58168c5ae7397731d063d5bbf3d657854427343f4c083240f7aacaa2d0f628585604051613b2c9291906148f3565b60405180910390a45050613bba565b8373ffffffffffffffffffffffffffffffffffffffff168573ffffffffffffffffffffffffffffffffffffffff168273ffffffffffffffffffffffffffffffffffffffff167f4a39dc06d4c0dbc64b70af90fd698a233a518aa5d07e595d983b8c0526c8f7fb8686604051613bb19291906151bb565b60405180910390a45b5050505050565b6000604051905090565b600080fd5b600080fd5b6000819050919050565b613be881613bd5565b8114613bf357600080fd5b50565b600081359050613c0581613bdf565b92915050565b600060208284031215613c2157613c20613bcb565b5b6000613c2f84828501613bf6565b91505092915050565b600073ffffffffffffffffffffffffffffffffffffffff82169050919050565b6000613c6382613c38565b9050919050565b613c7381613c58565b8114613c7e57600080fd5b50565b600081359050613c9081613c6a565b92915050565b60008060408385031215613cad57613cac613bcb565b5b6000613cbb85828601613c81565b9250506020613ccc85828601613bf6565b9150509250929050565b613cdf81613bd5565b82525050565b6000602082019050613cfa6000830184613cd6565b92915050565b60007fffffffff0000000000000000000000000000000000000000000000000000000082169050919050565b613d3581613d00565b8114613d4057600080fd5b50565b600081359050613d5281613d2c565b92915050565b600060208284031215613d6e57613d6d613bcb565b5b6000613d7c84828501613d43565b91505092915050565b60008115159050919050565b613d9a81613d85565b82525050565b6000602082019050613db56000830184613d91565b92915050565b600080fd5b600080fd5b6000601f19601f8301169050919050565b7f4e487b7100000000000000000000000000000000000000000000000000000000600052604160045260246000fd5b613e0e82613dc5565b810181811067ffffffffffffffff82111715613e2d57613e2c613dd6565b5b80604052505050565b6000613e40613bc1565b9050613e4c8282613e05565b919050565b600067ffffffffffffffff821115613e6c57613e6b613dd6565b5b613e7582613dc5565b9050602081019050919050565b82818337600083830152505050565b6000613ea4613e9f84613e51565b613e36565b905082815260208101848484011115613ec057613ebf613dc0565b5b613ecb848285613e82565b509392505050565b600082601f830112613ee857613ee7613dbb565b5b8135613ef8848260208601613e91565b91505092915050565b600060208284031215613f1757613f16613bcb565b5b600082013567ffffffffffffffff811115613f3557613f34613bd0565b5b613f4184828501613ed3565b91505092915050565b600080fd5b600080fd5b60008083601f840112613f6a57613f69613dbb565b5b8235905067ffffffffffffffff811115613f8757613f86613f4a565b5b602083019150836001820283011115613fa357613fa2613f4f565b5b9250929050565b60028110613fb757600080fd5b50565b600081359050613fc981613faa565b92915050565b60008060008060608587031215613fe957613fe8613bcb565b5b6000613ff787828801613bf6565b945050602085013567ffffffffffffffff81111561401857614017613bd0565b5b61402487828801613f54565b9350935050604061403787828801613fba565b91505092959194509250565b60006020828403121561405957614058613bcb565b5b600061406784828501613c81565b91505092915050565b600081519050919050565b600082825260208201905092915050565b60005b838110156140aa57808201518184015260208101905061408f565b60008484015250505050565b60006140c182614070565b6140cb818561407b565b93506140db81856020860161408c565b6140e481613dc5565b840191505092915050565b6000602082019050818103600083015261410981846140b6565b905092915050565b600067ffffffffffffffff82111561412c5761412b613dd6565b5b602082029050602081019050919050565b600061415061414b84614111565b613e36565b9050808382526020820190506020840283018581111561417357614172613f4f565b5b835b8181101561419c57806141888882613bf6565b845260208401935050602081019050614175565b5050509392505050565b600082601f8301126141bb576141ba613dbb565b5b81356141cb84826020860161413d565b91505092915050565b600067ffffffffffffffff8211156141ef576141ee613dd6565b5b6141f882613dc5565b9050602081019050919050565b6000614218614213846141d4565b613e36565b90508281526020810184848401111561423457614233613dc0565b5b61423f848285613e82565b509392505050565b600082601f83011261425c5761425b613dbb565b5b813561426c848260208601614205565b91505092915050565b600080600080600060a0868803121561429157614290613bcb565b5b600061429f88828901613c81565b95505060206142b088828901613c81565b945050604086013567ffffffffffffffff8111156142d1576142d0613bd0565b5b6142dd888289016141a6565b935050606086013567ffffffffffffffff8111156142fe576142fd613bd0565b5b61430a888289016141a6565b925050608086013567ffffffffffffffff81111561432b5761432a613bd0565b5b61433788828901614247565b9150509295509295909350565b600067ffffffffffffffff82111561435f5761435e613dd6565b5b602082029050602081019050919050565b600061438361437e84614344565b613e36565b905080838252602082019050602084028301858111156143a6576143a5613f4f565b5b835b818110156143cf57806143bb8882613c81565b8452602084019350506020810190506143a8565b5050509392505050565b600082601f8301126143ee576143ed613dbb565b5b81356143fe848260208601614370565b91505092915050565b6000806040838503121561441e5761441d613bcb565b5b600083013567ffffffffffffffff81111561443c5761443b613bd0565b5b614448858286016143d9565b925050602083013567ffffffffffffffff81111561446957614468613bd0565b5b614475858286016141a6565b9150509250929050565b600081519050919050565b600082825260208201905092915050565b6000819050602082019050919050565b6144b481613bd5565b82525050565b60006144c683836144ab565b60208301905092915050565b6000602082019050919050565b60006144ea8261447f565b6144f4818561448a565b93506144ff8361449b565b8060005b8381101561453057815161451788826144ba565b9750614522836144d2565b925050600181019050614503565b5085935050505092915050565b6000602082019050818103600083015261455781846144df565b905092915050565b61456881613d85565b811461457357600080fd5b50565b6000813590506145858161455f565b92915050565b600080604083850312156145a2576145a1613bcb565b5b60006145b085828601613bf6565b92505060206145c185828601614576565b9150509250929050565b6000806000606084860312156145e4576145e3613bcb565b5b60006145f286828701613c81565b935050602084013567ffffffffffffffff81111561461357614612613bd0565b5b61461f868287016141a6565b925050604084013567ffffffffffffffff8111156146405761463f613bd0565b5b61464c868287016141a6565b9150509250925092565b61465f81613c58565b82525050565b600060208201905061467a6000830184614656565b92915050565b6000806040838503121561469757614696613bcb565b5b60006146a585828601613c81565b92505060206146b685828601614576565b9150509250929050565b600080604083850312156146d7576146d6613bcb565b5b60006146e585828601613bf6565b92505060206146f685828601613bf6565b9150509250929050565b6000806040838503121561471757614716613bcb565b5b600061472585828601613bf6565b925050602061473685828601613c81565b9150509250929050565b6000806040838503121561475757614756613bcb565b5b600061476585828601613c81565b925050602061477685828601613c81565b9150509250929050565b600080600080600060a0868803121561479c5761479b613bcb565b5b60006147aa88828901613c81565b95505060206147bb88828901613c81565b94505060406147cc88828901613bf6565b93505060606147dd88828901613bf6565b925050608086013567ffffffffffffffff8111156147fe576147fd613bd0565b5b61480a88828901614247565b9150509295509295909350565b6000806000606084860312156148305761482f613bcb565b5b600061483e86828701613c81565b935050602061484f86828701613bf6565b925050604061486086828701613bf6565b9150509250925092565b7f4e487b7100000000000000000000000000000000000000000000000000000000600052602260045260246000fd5b600060028204905060018216806148b157607f821691505b6020821081036148c4576148c361486a565b5b50919050565b60006040820190506148df6000830185614656565b6148ec6020830184614656565b9392505050565b60006040820190506149086000830185613cd6565b6149156020830184613cd6565b9392505050565b7f4e487b7100000000000000000000000000000000000000000000000000000000600052603260045260246000fd5b7f4e487b7100000000000000000000000000000000000000000000000000000000600052601160045260246000fd5b600061498582613bd5565b91507fffffffffffffffffffffffffffffffffffffffffffffffffffffffffffffffff82036149b7576149b661494b565b5b600182019050919050565b60006149cd82613bd5565b91506149d883613bd5565b92508282039050818111156149f0576149ef61494b565b5b92915050565b7f4e487b7100000000000000000000000000000000000000000000000000000000600052603160045260246000fd5b6000614a3082613bd5565b9150614a3b83613bd5565b9250828202614a4981613bd5565b91508282048414831517614a6057614a5f61494b565b5b5092915050565b7f4e487b7100000000000000000000000000000000000000000000000000000000600052601260045260246000fd5b6000614aa182613bd5565b9150614aac83613bd5565b925082614abc57614abb614a67565b5b828204905092915050565b60008190508160005260206000209050919050565b60006020601f8301049050919050565b600082821b905092915050565b600060088302614b297fffffffffffffffffffffffffffffffffffffffffffffffffffffffffffffffff82614aec565b614b338683614aec565b95508019841693508086168417925050509392505050565b6000819050919050565b6000614b70614b6b614b6684613bd5565b614b4b565b613bd5565b9050919050565b6000819050919050565b614b8a83614b55565b614b9e614b9682614b77565b848454614af9565b825550505050565b600090565b614bb3614ba6565b614bbe818484614b81565b505050565b5b81811015614be257614bd7600082614bab565b600181019050614bc4565b5050565b601f821115614c2757614bf881614ac7565b614c0184614adc565b81016020851015614c10578190505b614c24614c1c85614adc565b830182614bc3565b50505b505050565b600082821c905092915050565b6000614c4a60001984600802614c2c565b1980831691505092915050565b6000614c638383614c39565b9150826002028217905092915050565b614c7c82614070565b67ffffffffffffffff811115614c9557614c94613dd6565b5b614c9f8254614899565b614caa828285614be6565b600060209050601f831160018114614cdd5760008415614ccb578287015190505b614cd58582614c57565b865550614d3d565b601f198416614ceb86614ac7565b60005b82811015614d1357848901518255600182019150602085019450602081019050614cee565b86831015614d305784890151614d2c601f891682614c39565b8355505b6001600288020188555050505b505050505050565b7f4e487b7100000000000000000000000000000000000000000000000000000000600052602160045260246000fd5b600082905092915050565b614d898383614d74565b67ffffffffffffffff811115614da257614da1613dd6565b5b614dac8254614899565b614db7828285614be6565b6000601f831160018114614de65760008415614dd4578287013590505b614dde8582614c57565b865550614e46565b601f198416614df486614ac7565b60005b82811015614e1c57848901358255600182019150602085019450602081019050614df7565b86831015614e395784890135614e35601f891682614c39565b8355505b6001600288020188555050505b50505050505050565b600081905092915050565b6000614e668385614e4f565b9350614e73838584613e82565b82840190509392505050565b6000614e8c828486614e5a565b91508190509392505050565b60008160601b9050919050565b6000614eb082614e98565b9050919050565b6000614ec282614ea5565b9050919050565b614eda614ed582613c58565b614eb7565b82525050565b6000819050919050565b6000819050919050565b614f05614f0082614ee0565b614eea565b82525050565b60038110614f1c57614f1b614d45565b5b50565b6000819050614f2d82614f0b565b919050565b6000614f3d82614f1f565b9050919050565b60008160f81b9050919050565b6000614f5c82614f44565b9050919050565b614f74614f6f82614f32565b614f51565b82525050565b6000819050919050565b614f95614f9082613bd5565b614f7a565b82525050565b6000614fa78287614ec9565b601482019150614fb78286614ef4565b602082019150614fc78285614f63565b600182019150614fd78284614f84565b60208201915081905095945050505050565b600081519050919050565b600082825260208201905092915050565b600061501082614fe9565b61501a8185614ff4565b935061502a81856020860161408c565b61503381613dc5565b840191505092915050565b600060a0820190506150536000830188614656565b6150606020830187614656565b61506d6040830186613cd6565b61507a6060830185613cd6565b818103608083015261508c8184615005565b90509695505050505050565b6000815190506150a781613d2c565b92915050565b6000602082840312156150c3576150c2613bcb565b5b60006150d184828501615098565b91505092915050565b600060a0820190506150ef6000830188614656565b6150fc6020830187614656565b818103604083015261510e81866144df565b9050818103606083015261512281856144df565b905081810360808301526151368184615005565b90509695505050505050565b600061514d82613bd5565b915061515883613bd5565b92508282019050808211156151705761516f61494b565b5b92915050565b600060808201905061518b6000830187614656565b6151986020830186613cd6565b6151a56040830185613cd6565b6151b26060830184613cd6565b95945050505050565b600060408201905081810360008301526151d581856144df565b905081810360208301526151e981846144df565b9050939250505056fea264697066735822122075f2b5b199ae8b28a61cffbe56a78f614b35184e03c536481ea8607173ce888e64736f6c63430008140033",
  "devdoc": {
    "errors": {
      "ERC1155InsufficientBalance(address,uint256,uint256,uint256)": [
        {
          "details": "Indicates an error related to the current `balance` of a `sender`. Used in transfers.",
          "params": {
            "balance": "Current balance for the interacting account.",
            "needed": "Minimum amount required to perform a transfer.",
            "sender": "Address whose tokens are being transferred.",
            "tokenId": "Identifier number of a token."
          }
        }
      ],
      "ERC1155InvalidApprover(address)": [
        {
          "details": "Indicates a failure with the `approver` of a token to be approved. Used in approvals.",
          "params": {
            "approver": "Address initiating an approval operation."
          }
        }
      ],
      "ERC1155InvalidArrayLength(uint256,uint256)": [
        {
          "details": "Indicates an array length mismatch between ids and values in a safeBatchTransferFrom operation. Used in batch transfers.",
          "params": {
            "idsLength": "Length of the array of token identifiers",
            "valuesLength": "Length of the array of token amounts"
          }
        }
      ],
      "ERC1155InvalidOperator(address)": [
        {
          "details": "Indicates a failure with the `operator` to be approved. Used in approvals.",
          "params": {
            "operator": "Address that may be allowed to operate on tokens without being their owner."
          }
        }
      ],
      "ERC1155InvalidReceiver(address)": [
        {
          "details": "Indicates a failure with the token `receiver`. Used in transfers.",
          "params": {
            "receiver": "Address to which tokens are being transferred."
          }
        }
      ],
      "ERC1155InvalidSender(address)": [
        {
          "details": "Indicates a failure with the token `sender`. Used in transfers.",
          "params": {
            "sender": "Address whose tokens are being transferred."
          }
        }
      ],
      "ERC1155MissingApprovalForAll(address,address)": [
        {
          "details": "Indicates a failure with the `operator`s approval. Used in transfers.",
          "params": {
            "operator": "Address that may be allowed to operate on tokens without being their owner.",
            "owner": "Address of the current owner of a token."
          }
        }
      ],
      "OwnableInvalidOwner(address)": [
        {
          "details": "The owner is not a valid owner account. (eg. `address(0)`)"
        }
      ],
      "OwnableUnauthorizedAccount(address)": [
        {
          "details": "The caller account is not authorized to perform an operation."
        }
      ],
      "ReentrancyGuardReentrantCall()": [
        {
          "details": "Unauthorized reentrant call."
        }
      ]
    },
    "events": {
      "ApprovalForAll(address,address,bool)": {
        "details": "Emitted when `account` grants or revokes permission to `operator` to transfer their tokens, according to `approved`."
      },
      "TransferBatch(address,address,address,uint256[],uint256[])": {
        "details": "Equivalent to multiple {TransferSingle} events, where `operator`, `from` and `to` are the same for all transfers."
      },
      "TransferSingle(address,address,address,uint256,uint256)": {
        "details": "Emitted when `value` amount of tokens of type `id` are transferred from `from` to `to` by `operator`."
      },
      "URI(string,uint256)": {
        "details": "Emitted when the URI for token type `id` changes to `value`, if it is a non-programmatic URI. If an {URI} event was emitted for `id`, the standard https://eips.ethereum.org/EIPS/eip-1155#metadata-extensions[guarantees] that `value` will equal the value returned by {IERC1155MetadataURI-uri}."
      }
    },
    "kind": "dev",
    "methods": {
      "balanceOf(address,uint256)": {
        "details": "See {IERC1155-balanceOf}."
      },
      "balanceOfBatch(address[],uint256[])": {
        "details": "See {IERC1155-balanceOfBatch}. Requirements: - `accounts` and `ids` must have the same length."
      },
      "exists(uint256)": {
        "details": "Indicates whether any token exist with a given id, or not."
      },
      "isApprovedForAll(address,address)": {
        "details": "See {IERC1155-isApprovedForAll}."
      },
      "owner()": {
        "details": "Returns the address of the current owner."
      },
      "renounceOwnership()": {
        "details": "Leaves the contract without owner. It will not be possible to call `onlyOwner` functions. Can only be called by the current owner. NOTE: Renouncing ownership will leave the contract without an owner, thereby disabling any functionality that is only available to the owner."
      },
      "safeBatchTransferFrom(address,address,uint256[],uint256[],bytes)": {
        "details": "See {IERC1155-safeBatchTransferFrom}."
      },
      "safeTransferFrom(address,address,uint256,uint256,bytes)": {
        "details": "See {IERC1155-safeTransferFrom}."
      },
      "setApprovalForAll(address,bool)": {
        "details": "See {IERC1155-setApprovalForAll}."
      },
      "supportsInterface(bytes4)": {
        "details": "See {IERC165-supportsInterface}."
      },
      "totalSupply()": {
        "details": "Total value of tokens."
      },
      "totalSupply(uint256)": {
        "details": "Total value of tokens in with a given id."
      },
      "transferOwnership(address)": {
        "details": "Transfers ownership of the contract to a new account (`newOwner`). Can only be called by the current owner."
      }
    },
    "version": 1
  },
  "userdoc": {
    "kind": "user",
    "methods": {},
    "version": 1
  },
  "storageLayout": {
    "storage": [
      {
        "astId": 326,
        "contract": "contracts/src/Diary.sol:Diary",
        "label": "_balances",
        "offset": 0,
        "slot": "0",
        "type": "t_mapping(t_uint256,t_mapping(t_address,t_uint256))"
      },
      {
        "astId": 332,
        "contract": "contracts/src/Diary.sol:Diary",
        "label": "_operatorApprovals",
        "offset": 0,
        "slot": "1",
        "type": "t_mapping(t_address,t_mapping(t_address,t_bool))"
      },
      {
        "astId": 334,
        "contract": "contracts/src/Diary.sol:Diary",
        "label": "_uri",
        "offset": 0,
        "slot": "2",
        "type": "t_string_storage"
      },
      {
        "astId": 8,
        "contract": "contracts/src/Diary.sol:Diary",
        "label": "_owner",
        "offset": 0,
        "slot": "3",
        "type": "t_address"
      },
      {
        "astId": 1591,
        "contract": "contracts/src/Diary.sol:Diary",
        "label": "_totalSupply",
        "offset": 0,
        "slot": "4",
        "type": "t_mapping(t_uint256,t_uint256)"
      },
      {
        "astId": 1593,
        "contract": "contracts/src/Diary.sol:Diary",
        "label": "_totalSupplyAll",
        "offset": 0,
        "slot": "5",
        "type": "t_uint256"
      },
      {
        "astId": 1984,
        "contract": "contracts/src/Diary.sol:Diary",
        "label": "_status",
        "offset": 0,
        "slot": "6",
        "type": "t_uint256"
      },
      {
        "astId": 3269,
        "contract": "contracts/src/Diary.sol:Diary",
        "label": "nonce",
        "offset": 0,
        "slot": "7",
        "type": "t_uint256"
      },
      {
        "astId": 3271,
        "contract": "contracts/src/Diary.sol:Diary",
        "label": "DiarySavingFee",
        "offset": 0,
        "slot": "8",
        "type": "t_uint256"
      },
      {
        "astId": 3273,
        "contract": "contracts/src/Diary.sol:Diary",
        "label": "DiaryCoverFee",
        "offset": 0,
        "slot": "9",
        "type": "t_uint256"
      },
      {
        "astId": 3277,
        "contract": "contracts/src/Diary.sol:Diary",
        "label": "lastSaveDate",
        "offset": 0,
        "slot": "10",
        "type": "t_mapping(t_address,t_uint256)"
      },
      {
        "astId": 3283,
        "contract": "contracts/src/Diary.sol:Diary",
        "label": "followerTokenPrice",
        "offset": 0,
        "slot": "11",
        "type": "t_uint256"
      },
      {
        "astId": 3289,
        "contract": "contracts/src/Diary.sol:Diary",
        "label": "discountRate",
        "offset": 0,
        "slot": "12",
        "type": "t_uint256"
      },
      {
        "astId": 3295,
        "contract": "contracts/src/Diary.sol:Diary",
        "label": "isFollowing",
        "offset": 0,
        "slot": "13",
        "type": "t_mapping(t_address,t_mapping(t_uint256,t_bool))"
      },
      {
        "astId": 3300,
        "contract": "contracts/src/Diary.sol:Diary",
        "label": "profileFollowers",
        "offset": 0,
        "slot": "14",
        "type": "t_mapping(t_uint256,t_array(t_address)dyn_storage)"
      },
      {
        "astId": 3306,
        "contract": "contracts/src/Diary.sol:Diary",
        "label": "profileFollowerIndexes",
        "offset": 0,
        "slot": "15",
        "type": "t_mapping(t_uint256,t_mapping(t_address,t_uint256))"
      },
      {
        "astId": 3310,
        "contract": "contracts/src/Diary.sol:Diary",
        "label": "DiaryOwners",
        "offset": 0,
        "slot": "16",
        "type": "t_mapping(t_uint256,t_address)"
      },
      {
        "astId": 3315,
        "contract": "contracts/src/Diary.sol:Diary",
        "label": "diaryVisibility",
        "offset": 0,
        "slot": "17",
        "type": "t_mapping(t_uint256,t_enum(DiaryVisibility)4630)"
      },
      {
        "astId": 3321,
        "contract": "contracts/src/Diary.sol:Diary",
        "label": "profileTokens",
        "offset": 0,
        "slot": "18",
        "type": "t_mapping(t_address,t_mapping(t_uint256,t_bool))"
      },
      {
        "astId": 3325,
        "contract": "contracts/src/Diary.sol:Diary",
        "label": "profileOwnedBy",
        "offset": 0,
        "slot": "19",
        "type": "t_mapping(t_uint256,t_address)"
      },
      {
        "astId": 3329,
        "contract": "contracts/src/Diary.sol:Diary",
        "label": "hasProfile",
        "offset": 0,
        "slot": "20",
        "type": "t_mapping(t_address,t_bool)"
      },
      {
        "astId": 3335,
        "contract": "contracts/src/Diary.sol:Diary",
        "label": "profileDiaries",
        "offset": 0,
        "slot": "21",
        "type": "t_mapping(t_uint256,t_mapping(t_uint256,t_bool))"
      },
      {
        "astId": 3340,
        "contract": "contracts/src/Diary.sol:Diary",
        "label": "profileData",
        "offset": 0,
        "slot": "22",
        "type": "t_mapping(t_uint256,t_struct(Profile)4750_storage)"
      },
      {
        "astId": 3343,
        "contract": "contracts/src/Diary.sol:Diary",
        "label": "publicProfileIds",
        "offset": 0,
        "slot": "23",
        "type": "t_array(t_uint256)dyn_storage"
      },
      {
        "astId": 3347,
        "contract": "contracts/src/Diary.sol:Diary",
        "label": "profileIndexInPublic",
        "offset": 0,
        "slot": "24",
        "type": "t_mapping(t_uint256,t_uint256)"
      },
      {
        "astId": 3351,
        "contract": "contracts/src/Diary.sol:Diary",
        "label": "tokenUri",
        "offset": 0,
        "slot": "25",
        "type": "t_mapping(t_uint256,t_string_storage)"
      }
    ],
    "types": {
      "t_address": {
        "encoding": "inplace",
        "label": "address",
        "numberOfBytes": "20"
      },
      "t_array(t_address)dyn_storage": {
        "base": "t_address",
        "encoding": "dynamic_array",
        "label": "address[]",
        "numberOfBytes": "32"
      },
      "t_array(t_uint256)dyn_storage": {
        "base": "t_uint256",
        "encoding": "dynamic_array",
        "label": "uint256[]",
        "numberOfBytes": "32"
      },
      "t_bool": {
        "encoding": "inplace",
        "label": "bool",
        "numberOfBytes": "1"
      },
      "t_enum(DiaryVisibility)4630": {
        "encoding": "inplace",
        "label": "enum Enums.DiaryVisibility",
        "numberOfBytes": "1"
      },
      "t_mapping(t_address,t_bool)": {
        "encoding": "mapping",
        "key": "t_address",
        "label": "mapping(address => bool)",
        "numberOfBytes": "32",
        "value": "t_bool"
      },
      "t_mapping(t_address,t_mapping(t_address,t_bool))": {
        "encoding": "mapping",
        "key": "t_address",
        "label": "mapping(address => mapping(address => bool))",
        "numberOfBytes": "32",
        "value": "t_mapping(t_address,t_bool)"
      },
      "t_mapping(t_address,t_mapping(t_uint256,t_bool))": {
        "encoding": "mapping",
        "key": "t_address",
        "label": "mapping(address => mapping(uint256 => bool))",
        "numberOfBytes": "32",
        "value": "t_mapping(t_uint256,t_bool)"
      },
      "t_mapping(t_address,t_uint256)": {
        "encoding": "mapping",
        "key": "t_address",
        "label": "mapping(address => uint256)",
        "numberOfBytes": "32",
        "value": "t_uint256"
      },
      "t_mapping(t_uint256,t_address)": {
        "encoding": "mapping",
        "key": "t_uint256",
        "label": "mapping(uint256 => address)",
        "numberOfBytes": "32",
        "value": "t_address"
      },
      "t_mapping(t_uint256,t_array(t_address)dyn_storage)": {
        "encoding": "mapping",
        "key": "t_uint256",
        "label": "mapping(uint256 => address[])",
        "numberOfBytes": "32",
        "value": "t_array(t_address)dyn_storage"
      },
      "t_mapping(t_uint256,t_bool)": {
        "encoding": "mapping",
        "key": "t_uint256",
        "label": "mapping(uint256 => bool)",
        "numberOfBytes": "32",
        "value": "t_bool"
      },
      "t_mapping(t_uint256,t_enum(DiaryVisibility)4630)": {
        "encoding": "mapping",
        "key": "t_uint256",
        "label": "mapping(uint256 => enum Enums.DiaryVisibility)",
        "numberOfBytes": "32",
        "value": "t_enum(DiaryVisibility)4630"
      },
      "t_mapping(t_uint256,t_mapping(t_address,t_uint256))": {
        "encoding": "mapping",
        "key": "t_uint256",
        "label": "mapping(uint256 => mapping(address => uint256))",
        "numberOfBytes": "32",
        "value": "t_mapping(t_address,t_uint256)"
      },
      "t_mapping(t_uint256,t_mapping(t_uint256,t_bool))": {
        "encoding": "mapping",
        "key": "t_uint256",
        "label": "mapping(uint256 => mapping(uint256 => bool))",
        "numberOfBytes": "32",
        "value": "t_mapping(t_uint256,t_bool)"
      },
      "t_mapping(t_uint256,t_string_storage)": {
        "encoding": "mapping",
        "key": "t_uint256",
        "label": "mapping(uint256 => string)",
        "numberOfBytes": "32",
        "value": "t_string_storage"
      },
      "t_mapping(t_uint256,t_struct(Profile)4750_storage)": {
        "encoding": "mapping",
        "key": "t_uint256",
        "label": "mapping(uint256 => struct Structs.Profile)",
        "numberOfBytes": "32",
        "value": "t_struct(Profile)4750_storage"
      },
      "t_mapping(t_uint256,t_uint256)": {
        "encoding": "mapping",
        "key": "t_uint256",
        "label": "mapping(uint256 => uint256)",
        "numberOfBytes": "32",
        "value": "t_uint256"
      },
      "t_string_storage": {
        "encoding": "bytes",
        "label": "string",
        "numberOfBytes": "32"
      },
      "t_struct(Profile)4750_storage": {
        "encoding": "inplace",
        "label": "struct Structs.Profile",
        "members": [
          {
            "astId": 4745,
            "contract": "contracts/src/Diary.sol:Diary",
            "label": "isPrivate",
            "offset": 0,
            "slot": "0",
            "type": "t_bool"
          },
          {
            "astId": 4749,
            "contract": "contracts/src/Diary.sol:Diary",
            "label": "followRequests",
            "offset": 0,
            "slot": "1",
            "type": "t_mapping(t_address,t_bool)"
          }
        ],
        "numberOfBytes": "64"
      },
      "t_uint256": {
        "encoding": "inplace",
        "label": "uint256",
        "numberOfBytes": "32"
      }
    }
  }
}